{
  "contractName": "DaiToken",
  "abi": [
    {
      "inputs": [
        {
          "internalType": "uint256",
          "name": "_initialSupply",
          "type": "uint256"
        }
      ],
      "stateMutability": "nonpayable",
      "type": "constructor"
    },
    {
      "anonymous": false,
      "inputs": [
        {
          "indexed": true,
          "internalType": "address",
          "name": "_owner",
          "type": "address"
        },
        {
          "indexed": true,
          "internalType": "address",
          "name": "_spender",
          "type": "address"
        },
        {
          "indexed": false,
          "internalType": "uint256",
          "name": "_value",
          "type": "uint256"
        }
      ],
      "name": "Approval",
      "type": "event"
    },
    {
      "anonymous": false,
      "inputs": [
        {
          "indexed": true,
          "internalType": "address",
          "name": "_from",
          "type": "address"
        },
        {
          "indexed": true,
          "internalType": "address",
          "name": "_to",
          "type": "address"
        },
        {
          "indexed": false,
          "internalType": "uint256",
          "name": "_value",
          "type": "uint256"
        }
      ],
      "name": "Transfer",
      "type": "event"
    },
    {
      "inputs": [
        {
          "internalType": "address",
          "name": "",
          "type": "address"
        },
        {
          "internalType": "address",
          "name": "",
          "type": "address"
        }
      ],
      "name": "allowances",
      "outputs": [
        {
          "internalType": "uint256",
          "name": "",
          "type": "uint256"
        }
      ],
      "stateMutability": "view",
      "type": "function",
      "constant": true
    },
    {
      "inputs": [
        {
          "internalType": "address",
          "name": "",
          "type": "address"
        }
      ],
      "name": "balances",
      "outputs": [
        {
          "internalType": "uint256",
          "name": "",
          "type": "uint256"
        }
      ],
      "stateMutability": "view",
      "type": "function",
      "constant": true
    },
    {
      "inputs": [],
      "name": "name",
      "outputs": [
        {
          "internalType": "string",
          "name": "",
          "type": "string"
        }
      ],
      "stateMutability": "view",
      "type": "function",
      "constant": true
    },
    {
      "inputs": [],
      "name": "symbol",
      "outputs": [
        {
          "internalType": "string",
          "name": "",
          "type": "string"
        }
      ],
      "stateMutability": "view",
      "type": "function",
      "constant": true
    },
    {
      "inputs": [],
      "name": "totalSupply",
      "outputs": [
        {
          "internalType": "uint256",
          "name": "",
          "type": "uint256"
        }
      ],
      "stateMutability": "view",
      "type": "function",
      "constant": true
    },
    {
      "inputs": [],
      "name": "getTotalSupply",
      "outputs": [
        {
          "internalType": "uint256",
          "name": "",
          "type": "uint256"
        }
      ],
      "stateMutability": "view",
      "type": "function",
      "constant": true
    },
    {
      "inputs": [
        {
          "internalType": "address",
          "name": "_account",
          "type": "address"
        }
      ],
      "name": "balanceOf",
      "outputs": [
        {
          "internalType": "uint256",
          "name": "",
          "type": "uint256"
        }
      ],
      "stateMutability": "view",
      "type": "function",
      "constant": true
    },
    {
      "inputs": [],
      "name": "decimals",
      "outputs": [
        {
          "internalType": "uint8",
          "name": "",
          "type": "uint8"
        }
      ],
      "stateMutability": "pure",
      "type": "function",
      "constant": true
    },
    {
      "inputs": [
        {
          "internalType": "address",
          "name": "_from",
          "type": "address"
        },
        {
          "internalType": "address",
          "name": "_to",
          "type": "address"
        },
        {
          "internalType": "uint256",
          "name": "_amount",
          "type": "uint256"
        }
      ],
      "name": "transferTo",
      "outputs": [
        {
          "internalType": "bool",
          "name": "",
          "type": "bool"
        }
      ],
      "stateMutability": "nonpayable",
      "type": "function"
    },
    {
      "inputs": [
        {
          "internalType": "address",
          "name": "_to",
          "type": "address"
        },
        {
          "internalType": "uint256",
          "name": "_amount",
          "type": "uint256"
        }
      ],
      "name": "transfer",
      "outputs": [
        {
          "internalType": "bool",
          "name": "",
          "type": "bool"
        }
      ],
      "stateMutability": "nonpayable",
      "type": "function"
    },
    {
      "inputs": [
        {
          "internalType": "address",
          "name": "_owner",
          "type": "address"
        },
        {
          "internalType": "address",
          "name": "_spender",
          "type": "address"
        },
        {
          "internalType": "uint256",
          "name": "_amount",
          "type": "uint256"
        }
      ],
      "name": "approveFrom",
      "outputs": [
        {
          "internalType": "bool",
          "name": "",
          "type": "bool"
        }
      ],
      "stateMutability": "nonpayable",
      "type": "function"
    },
    {
      "inputs": [
        {
          "internalType": "address",
          "name": "spender",
          "type": "address"
        },
        {
          "internalType": "uint256",
          "name": "amount",
          "type": "uint256"
        }
      ],
      "name": "approve",
      "outputs": [
        {
          "internalType": "bool",
          "name": "",
          "type": "bool"
        }
      ],
      "stateMutability": "nonpayable",
      "type": "function"
    },
    {
      "inputs": [
        {
          "internalType": "address",
          "name": "_from",
          "type": "address"
        },
        {
          "internalType": "address",
          "name": "_to",
          "type": "address"
        },
        {
          "internalType": "uint256",
          "name": "_amount",
          "type": "uint256"
        }
      ],
      "name": "transferFrom",
      "outputs": [
        {
          "internalType": "bool",
          "name": "",
          "type": "bool"
        }
      ],
      "stateMutability": "nonpayable",
      "type": "function"
    }
  ],
  "bytecode": "0x60806040526040518060400160405280601181526020017f446169204578656d706c6520546f6b656e000000000000000000000000000000815250600090805190602001906200005192919062000125565b506040518060400160405280600381526020017f4445540000000000000000000000000000000000000000000000000000000000815250600190805190602001906200009f92919062000125565b50348015620000ad57600080fd5b506040516200106c3803806200106c8339818101604052810190620000d3919062000215565b8060028190555080600360003373ffffffffffffffffffffffffffffffffffffffff1673ffffffffffffffffffffffffffffffffffffffff1681526020019081526020016000208190555050620002ac565b828054620001339062000276565b90600052602060002090601f016020900481019282620001575760008555620001a3565b82601f106200017257805160ff1916838001178555620001a3565b82800160010185558215620001a3579182015b82811115620001a257825182559160200191906001019062000185565b5b509050620001b29190620001b6565b5090565b5b80821115620001d1576000816000905550600101620001b7565b5090565b600080fd5b6000819050919050565b620001ef81620001da565b8114620001fb57600080fd5b50565b6000815190506200020f81620001e4565b92915050565b6000602082840312156200022e576200022d620001d5565b5b60006200023e84828501620001fe565b91505092915050565b7f4e487b7100000000000000000000000000000000000000000000000000000000600052602260045260246000fd5b600060028204905060018216806200028f57607f821691505b60208210811415620002a657620002a562000247565b5b50919050565b610db080620002bc6000396000f3fe608060405234801561001057600080fd5b50600436106100cf5760003560e01c806352ec85291161008c57806395d89b411161006657806395d89b411461024e578063a5f2a1521461026c578063a9059cbb1461029c578063c4e41b22146102cc576100cf565b806352ec8529146101be57806355b6ed5c146101ee57806370a082311461021e576100cf565b806306fdde03146100d4578063095ea7b3146100f257806318160ddd1461012257806323b872dd1461014057806327e235e314610170578063313ce567146101a0575b600080fd5b6100dc6102ea565b6040516100e991906108ea565b60405180910390f35b61010c600480360381019061010791906109a5565b610378565b6040516101199190610a00565b60405180910390f35b61012a610390565b6040516101379190610a2a565b60405180910390f35b61015a60048036038101906101559190610a45565b610396565b6040516101679190610a00565b60405180910390f35b61018a60048036038101906101859190610a98565b61048a565b6040516101979190610a2a565b60405180910390f35b6101a86104a2565b6040516101b59190610ae1565b60405180910390f35b6101d860048036038101906101d39190610a45565b6104ab565b6040516101e59190610a00565b60405180910390f35b61020860048036038101906102039190610afc565b61059e565b6040516102159190610a2a565b60405180910390f35b61023860048036038101906102339190610a98565b6105c3565b6040516102459190610a2a565b60405180910390f35b61025661060c565b60405161026391906108ea565b60405180910390f35b61028660048036038101906102819190610a45565b61069a565b6040516102939190610a00565b60405180910390f35b6102b660048036038101906102b191906109a5565b61082f565b6040516102c39190610a00565b60405180910390f35b6102d4610847565b6040516102e19190610a2a565b60405180910390f35b600080546102f790610b6b565b80601f016020809104026020016040519081016040528092919081815260200182805461032390610b6b565b80156103705780601f1061034557610100808354040283529160200191610370565b820191906000526020600020905b81548152906001019060200180831161035357829003601f168201915b505050505081565b60006103853384846104ab565b506001905092915050565b60025481565b600080600460008673ffffffffffffffffffffffffffffffffffffffff1673ffffffffffffffffffffffffffffffffffffffff16815260200190815260200160002060003373ffffffffffffffffffffffffffffffffffffffff1673ffffffffffffffffffffffffffffffffffffffff1681526020019081526020016000205490508281101561045b576040517f08c379a000000000000000000000000000000000000000000000000000000000815260040161045290610c0f565b60405180910390fd5b6104718533858461046c9190610c5e565b6104ab565b5061047d85858561069a565b5060019150509392505050565b60036020528060005260406000206000915090505481565b60006012905090565b600081600460008673ffffffffffffffffffffffffffffffffffffffff1673ffffffffffffffffffffffffffffffffffffffff16815260200190815260200160002060008573ffffffffffffffffffffffffffffffffffffffff1673ffffffffffffffffffffffffffffffffffffffff168152602001908152602001600020819055508273ffffffffffffffffffffffffffffffffffffffff168473ffffffffffffffffffffffffffffffffffffffff167f8c5be1e5ebec7d5bd14f71427d1e84f3dd0314c0f7b2291e5b200ac8c7c3b9258460405161058b9190610a2a565b60405180910390a3600190509392505050565b6004602052816000526040600020602052806000526040600020600091509150505481565b6000600360008373ffffffffffffffffffffffffffffffffffffffff1673ffffffffffffffffffffffffffffffffffffffff168152602001908152602001600020549050919050565b6001805461061990610b6b565b80601f016020809104026020016040519081016040528092919081815260200182805461064590610b6b565b80156106925780601f1061066757610100808354040283529160200191610692565b820191906000526020600020905b81548152906001019060200180831161067557829003601f168201915b505050505081565b600080600360008673ffffffffffffffffffffffffffffffffffffffff1673ffffffffffffffffffffffffffffffffffffffff16815260200190815260200160002054905082811015610722576040517f08c379a000000000000000000000000000000000000000000000000000000000815260040161071990610d04565b60405180910390fd5b828103600360008773ffffffffffffffffffffffffffffffffffffffff1673ffffffffffffffffffffffffffffffffffffffff1681526020019081526020016000208190555082600360008673ffffffffffffffffffffffffffffffffffffffff1673ffffffffffffffffffffffffffffffffffffffff16815260200190815260200160002060008282546107b79190610d24565b925050819055508373ffffffffffffffffffffffffffffffffffffffff168573ffffffffffffffffffffffffffffffffffffffff167fddf252ad1be2c89b69c2b068fc378daa952ba7f163c4a11628f55a4df523b3ef8560405161081b9190610a2a565b60405180910390a360019150509392505050565b600061083c33848461069a565b506001905092915050565b6000600254905090565b600081519050919050565b600082825260208201905092915050565b60005b8381101561088b578082015181840152602081019050610870565b8381111561089a576000848401525b50505050565b6000601f19601f8301169050919050565b60006108bc82610851565b6108c6818561085c565b93506108d681856020860161086d565b6108df816108a0565b840191505092915050565b6000602082019050818103600083015261090481846108b1565b905092915050565b600080fd5b600073ffffffffffffffffffffffffffffffffffffffff82169050919050565b600061093c82610911565b9050919050565b61094c81610931565b811461095757600080fd5b50565b60008135905061096981610943565b92915050565b6000819050919050565b6109828161096f565b811461098d57600080fd5b50565b60008135905061099f81610979565b92915050565b600080604083850312156109bc576109bb61090c565b5b60006109ca8582860161095a565b92505060206109db85828601610990565b9150509250929050565b60008115159050919050565b6109fa816109e5565b82525050565b6000602082019050610a1560008301846109f1565b92915050565b610a248161096f565b82525050565b6000602082019050610a3f6000830184610a1b565b92915050565b600080600060608486031215610a5e57610a5d61090c565b5b6000610a6c8682870161095a565b9350506020610a7d8682870161095a565b9250506040610a8e86828701610990565b9150509250925092565b600060208284031215610aae57610aad61090c565b5b6000610abc8482850161095a565b91505092915050565b600060ff82169050919050565b610adb81610ac5565b82525050565b6000602082019050610af66000830184610ad2565b92915050565b60008060408385031215610b1357610b1261090c565b5b6000610b218582860161095a565b9250506020610b328582860161095a565b9150509250929050565b7f4e487b7100000000000000000000000000000000000000000000000000000000600052602260045260246000fd5b60006002820490506001821680610b8357607f821691505b60208210811415610b9757610b96610b3c565b5b50919050565b7f45524332303a207472616e7366657220616d6f756e742065786365656473206160008201527f6c6c6f77616e6365000000000000000000000000000000000000000000000000602082015250565b6000610bf960288361085c565b9150610c0482610b9d565b604082019050919050565b60006020820190508181036000830152610c2881610bec565b9050919050565b7f4e487b7100000000000000000000000000000000000000000000000000000000600052601160045260246000fd5b6000610c698261096f565b9150610c748361096f565b925082821015610c8757610c86610c2f565b5b828203905092915050565b7f45524332303a207472616e7366657220616d6f756e742065786365656473206260008201527f616c616e63650000000000000000000000000000000000000000000000000000602082015250565b6000610cee60268361085c565b9150610cf982610c92565b604082019050919050565b60006020820190508181036000830152610d1d81610ce1565b9050919050565b6000610d2f8261096f565b9150610d3a8361096f565b9250827fffffffffffffffffffffffffffffffffffffffffffffffffffffffffffffffff03821115610d6f57610d6e610c2f565b5b82820190509291505056fea264697066735822122059e5cac502808212bf0821f0fb862370241cf09501ce912bc6ef42a3118bf8a264736f6c634300080a0033",
  "immutableReferences": {},
  "source": "// SPDX-License-Identifier: MIT\npragma solidity >=0.4.22 <0.9.0;\n\ncontract DaiToken{\n    // Token name\n    string public name = 'Dai Exemple Token';\n    // Token Symbol\n    string public symbol = 'DET';\n    // Token total supply\n    uint256 public totalSupply;\n    // Token holders address\n    mapping(address => uint256) public balances;\n    mapping(address => mapping(address => uint256)) public allowances;\n\n    event Transfer(address indexed _from, address indexed _to, uint256 _value);\n    event Approval(address indexed _owner, address indexed _spender, uint256 _value);\n\n    constructor(uint256 _initialSupply) {\n        totalSupply = _initialSupply;\n        balances[msg.sender] = _initialSupply;\n    }\n\n    function getTotalSupply() public view returns(uint256){\n        return totalSupply;\n    }\n\n    function balanceOf(address _account) public view returns (uint256) {\n        return balances[_account];\n    }\n\n    function decimals() public pure returns (uint8) {\n        return 18;\n    }\n\n    function transferTo(address _from, address _to, uint256 _amount) public returns (bool){\n        uint256 senderBalance = balances[_from];\n        require(senderBalance >= _amount,\"ERC20: transfer amount exceeds balance\");\n\n        unchecked {\n            balances[_from] = senderBalance - _amount;\n        }\n        balances[_to] += _amount;\n\n        emit Transfer(_from,_to,_amount);\n\n        return true;\n    }\n\n    function transfer(address _to, uint256 _amount) public returns (bool){\n        transferTo(msg.sender, _to, _amount);\n        return true;\n    }\n\n    function approveFrom(address _owner,address _spender, uint256 _amount) public returns (bool) {\n        allowances[_owner][_spender] = _amount;\n        emit Approval(_owner, _spender, _amount);\n        return true;\n    }\n\n    function approve(address spender, uint256 amount) public returns (bool) {\n        approveFrom(msg.sender, spender, amount);\n        return true;\n    }\n\n\n    function transferFrom(address _from, address _to, uint256 _amount) public returns (bool){\n        uint256 currentAllowance = allowances[_from][msg.sender];\n        require(currentAllowance >= _amount, \"ERC20: transfer amount exceeds allowance\");\n        \n        approveFrom(_from, msg.sender, currentAllowance - _amount);\n\n        transferTo(_from,_to,_amount);\n\n        return true;\n    }\n}",
  "sourcePath": "/home/joseph/Desktop/Projects/Solidity/JosephToken/truffle/contracts/DaiToken.sol",
  "compiler": {
    "name": "solc",
    "version": "0.8.10+commit.fc410830.Emscripten.clang"
  },
  "schemaVersion": "3.4.4",
  "updatedAt": "2022-01-28T10:53:01.560Z",
  "networkType": "ethereum",
  "devdoc": {
    "kind": "dev",
    "methods": {},
    "version": 1
  },
  "userdoc": {
    "kind": "user",
    "methods": {},
    "version": 1
  }
}