{
  "contractName": "JosephStack",
  "abi": [
    {
      "inputs": [
        {
          "internalType": "contract JosephToken",
          "name": "_joToken",
          "type": "address"
        },
        {
          "internalType": "contract DaiToken",
          "name": "_daiToken",
          "type": "address"
        }
      ],
      "stateMutability": "nonpayable",
      "type": "constructor"
    },
    {
      "inputs": [],
      "name": "daiToken",
      "outputs": [
        {
          "internalType": "contract DaiToken",
          "name": "",
          "type": "address"
        }
      ],
      "stateMutability": "view",
      "type": "function",
      "constant": true
    },
    {
      "inputs": [
        {
          "internalType": "address",
          "name": "",
          "type": "address"
        }
      ],
      "name": "hasStaked",
      "outputs": [
        {
          "internalType": "bool",
          "name": "",
          "type": "bool"
        }
      ],
      "stateMutability": "view",
      "type": "function",
      "constant": true
    },
    {
      "inputs": [
        {
          "internalType": "address",
          "name": "",
          "type": "address"
        }
      ],
      "name": "isStaking",
      "outputs": [
        {
          "internalType": "bool",
          "name": "",
          "type": "bool"
        }
      ],
      "stateMutability": "view",
      "type": "function",
      "constant": true
    },
    {
      "inputs": [],
      "name": "josephToken",
      "outputs": [
        {
          "internalType": "contract JosephToken",
          "name": "",
          "type": "address"
        }
      ],
      "stateMutability": "view",
      "type": "function",
      "constant": true
    },
    {
      "inputs": [],
      "name": "owner",
      "outputs": [
        {
          "internalType": "address",
          "name": "",
          "type": "address"
        }
      ],
      "stateMutability": "view",
      "type": "function",
      "constant": true
    },
    {
      "inputs": [
        {
          "internalType": "uint256",
          "name": "",
          "type": "uint256"
        }
      ],
      "name": "stakers",
      "outputs": [
        {
          "internalType": "address",
          "name": "",
          "type": "address"
        }
      ],
      "stateMutability": "view",
      "type": "function",
      "constant": true
    },
    {
      "inputs": [
        {
          "internalType": "address",
          "name": "",
          "type": "address"
        }
      ],
      "name": "stakingBalance",
      "outputs": [
        {
          "internalType": "uint256",
          "name": "",
          "type": "uint256"
        }
      ],
      "stateMutability": "view",
      "type": "function",
      "constant": true
    }
  ],
  "bytecode": "0x60806040526040518060400160405280600d81526020017f546f6b656e20537461636b6572000000000000000000000000000000000000008152506000908051906020019061004f929190610148565b5034801561005c57600080fd5b5060405161085c38038061085c833981810160405281019061007e919061029e565b81600260006101000a81548173ffffffffffffffffffffffffffffffffffffffff021916908373ffffffffffffffffffffffffffffffffffffffff16021790555080600360006101000a81548173ffffffffffffffffffffffffffffffffffffffff021916908373ffffffffffffffffffffffffffffffffffffffff16021790555033600160006101000a81548173ffffffffffffffffffffffffffffffffffffffff021916908373ffffffffffffffffffffffffffffffffffffffff160217905550505061033f565b8280546101549061030d565b90600052602060002090601f01602090048101928261017657600085556101bd565b82601f1061018f57805160ff19168380011785556101bd565b828001600101855582156101bd579182015b828111156101bc5782518255916020019190600101906101a1565b5b5090506101ca91906101ce565b5090565b5b808211156101e75760008160009055506001016101cf565b5090565b600080fd5b600073ffffffffffffffffffffffffffffffffffffffff82169050919050565b600061021b826101f0565b9050919050565b600061022d82610210565b9050919050565b61023d81610222565b811461024857600080fd5b50565b60008151905061025a81610234565b92915050565b600061026b82610210565b9050919050565b61027b81610260565b811461028657600080fd5b50565b60008151905061029881610272565b92915050565b600080604083850312156102b5576102b46101eb565b5b60006102c38582860161024b565b92505060206102d485828601610289565b9150509250929050565b7f4e487b7100000000000000000000000000000000000000000000000000000000600052602260045260246000fd5b6000600282049050600182168061032557607f821691505b60208210811415610339576103386102de565b5b50919050565b61050e8061034e6000396000f3fe608060405234801561001057600080fd5b506004361061007d5760003560e01c8063be22f5461161005b578063be22f54614610100578063be66cd3e1461011e578063c93c8f341461013c578063fd5e6dd11461016c5761007d565b806345bc78ab146100825780636f49712b146100b25780638da5cb5b146100e2575b600080fd5b61009c60048036038101906100979190610308565b61019c565b6040516100a9919061034e565b60405180910390f35b6100cc60048036038101906100c79190610308565b6101b4565b6040516100d99190610384565b60405180910390f35b6100ea6101d4565b6040516100f791906103ae565b60405180910390f35b6101086101fa565b6040516101159190610428565b60405180910390f35b610126610220565b6040516101339190610464565b60405180910390f35b61015660048036038101906101519190610308565b610246565b6040516101639190610384565b60405180910390f35b610186600480360381019061018191906104ab565b610266565b60405161019391906103ae565b60405180910390f35b60056020528060005260406000206000915090505481565b60076020528060005260406000206000915054906101000a900460ff1681565b600160009054906101000a900473ffffffffffffffffffffffffffffffffffffffff1681565b600360009054906101000a900473ffffffffffffffffffffffffffffffffffffffff1681565b600260009054906101000a900473ffffffffffffffffffffffffffffffffffffffff1681565b60066020528060005260406000206000915054906101000a900460ff1681565b6004818154811061027657600080fd5b906000526020600020016000915054906101000a900473ffffffffffffffffffffffffffffffffffffffff1681565b600080fd5b600073ffffffffffffffffffffffffffffffffffffffff82169050919050565b60006102d5826102aa565b9050919050565b6102e5816102ca565b81146102f057600080fd5b50565b600081359050610302816102dc565b92915050565b60006020828403121561031e5761031d6102a5565b5b600061032c848285016102f3565b91505092915050565b6000819050919050565b61034881610335565b82525050565b6000602082019050610363600083018461033f565b92915050565b60008115159050919050565b61037e81610369565b82525050565b60006020820190506103996000830184610375565b92915050565b6103a8816102ca565b82525050565b60006020820190506103c3600083018461039f565b92915050565b6000819050919050565b60006103ee6103e96103e4846102aa565b6103c9565b6102aa565b9050919050565b6000610400826103d3565b9050919050565b6000610412826103f5565b9050919050565b61042281610407565b82525050565b600060208201905061043d6000830184610419565b92915050565b600061044e826103f5565b9050919050565b61045e81610443565b82525050565b60006020820190506104796000830184610455565b92915050565b61048881610335565b811461049357600080fd5b50565b6000813590506104a58161047f565b92915050565b6000602082840312156104c1576104c06102a5565b5b60006104cf84828501610496565b9150509291505056fea2646970667358221220c4538d8021ef1c49c5ba5d64a75d09ae4a53a84d4061f65d098cc758868295b464736f6c634300080a0033",
  "immutableReferences": {},
  "source": "// SPDX-License-Identifier: MIT\npragma solidity >=0.4.22 <0.9.0;\n\nimport './DaiToken.sol';\nimport './JosephToken.sol';\n\ncontract JosephStack {\n    string name = 'Token Stacker';\n    address public owner;\n    JosephToken public josephToken;\n    DaiToken public daiToken;\n\n    address[] public stakers;\n    mapping(address => uint) public stakingBalance;\n    mapping(address => bool) public hasStaked;\n    mapping(address => bool) public isStaking;\n\n    constructor (JosephToken _joToken, DaiToken _daiToken)  {\n        josephToken = _joToken;\n        daiToken = _daiToken;\n        owner = msg.sender;\n    }\n}\n",
  "sourcePath": "/home/joseph/Desktop/Projects/Solidity/JosephToken/truffle/contracts/JosephStack.sol",
  "compiler": {
    "name": "solc",
    "version": "0.8.10+commit.fc410830.Emscripten.clang"
  },
  "schemaVersion": "3.4.4",
  "updatedAt": "2022-01-28T10:53:01.553Z",
  "networkType": "ethereum",
  "devdoc": {
    "kind": "dev",
    "methods": {},
    "version": 1
  },
  "userdoc": {
    "kind": "user",
    "methods": {},
    "version": 1
  }
}