{
  "contractName": "JosephSwap",
  "abi": [
    {
      "inputs": [
        {
          "internalType": "contract JosephToken",
          "name": "_token",
          "type": "address"
        }
      ],
      "stateMutability": "nonpayable",
      "type": "constructor"
    },
    {
      "anonymous": false,
      "inputs": [
        {
          "indexed": false,
          "internalType": "address",
          "name": "account",
          "type": "address"
        },
        {
          "indexed": false,
          "internalType": "address",
          "name": "token",
          "type": "address"
        },
        {
          "indexed": false,
          "internalType": "uint256",
          "name": "amount",
          "type": "uint256"
        },
        {
          "indexed": false,
          "internalType": "uint256",
          "name": "rate",
          "type": "uint256"
        }
      ],
      "name": "TokensPurchased",
      "type": "event"
    },
    {
      "anonymous": false,
      "inputs": [
        {
          "indexed": false,
          "internalType": "address",
          "name": "account",
          "type": "address"
        },
        {
          "indexed": false,
          "internalType": "address",
          "name": "token",
          "type": "address"
        },
        {
          "indexed": false,
          "internalType": "uint256",
          "name": "amount",
          "type": "uint256"
        },
        {
          "indexed": false,
          "internalType": "uint256",
          "name": "rate",
          "type": "uint256"
        }
      ],
      "name": "TokensSold",
      "type": "event"
    },
    {
      "inputs": [],
      "name": "admin",
      "outputs": [
        {
          "internalType": "address",
          "name": "",
          "type": "address"
        }
      ],
      "stateMutability": "view",
      "type": "function",
      "constant": true
    },
    {
      "inputs": [],
      "name": "name",
      "outputs": [
        {
          "internalType": "string",
          "name": "",
          "type": "string"
        }
      ],
      "stateMutability": "view",
      "type": "function",
      "constant": true
    },
    {
      "inputs": [],
      "name": "token",
      "outputs": [
        {
          "internalType": "contract JosephToken",
          "name": "",
          "type": "address"
        }
      ],
      "stateMutability": "view",
      "type": "function",
      "constant": true
    },
    {
      "inputs": [],
      "name": "buyToken",
      "outputs": [],
      "stateMutability": "payable",
      "type": "function",
      "payable": true
    },
    {
      "inputs": [
        {
          "internalType": "uint256",
          "name": "_amount",
          "type": "uint256"
        }
      ],
      "name": "sellToken",
      "outputs": [],
      "stateMutability": "payable",
      "type": "function",
      "payable": true
    }
  ],
  "bytecode": "0x60806040526040518060400160405280601381526020017f4a6f73657068537761702045786368616e676500000000000000000000000000815250600190805190602001906200005192919062000112565b5060646003553480156200006457600080fd5b5060405162000d5e38038062000d5e83398181016040528101906200008a919062000240565b336000806101000a81548173ffffffffffffffffffffffffffffffffffffffff021916908373ffffffffffffffffffffffffffffffffffffffff16021790555080600260006101000a81548173ffffffffffffffffffffffffffffffffffffffff021916908373ffffffffffffffffffffffffffffffffffffffff16021790555050620002d7565b8280546200012090620002a1565b90600052602060002090601f01602090048101928262000144576000855562000190565b82601f106200015f57805160ff191683800117855562000190565b8280016001018555821562000190579182015b828111156200018f57825182559160200191906001019062000172565b5b5090506200019f9190620001a3565b5090565b5b80821115620001be576000816000905550600101620001a4565b5090565b600080fd5b600073ffffffffffffffffffffffffffffffffffffffff82169050919050565b6000620001f482620001c7565b9050919050565b60006200020882620001e7565b9050919050565b6200021a81620001fb565b81146200022657600080fd5b50565b6000815190506200023a816200020f565b92915050565b600060208284031215620002595762000258620001c2565b5b6000620002698482850162000229565b91505092915050565b7f4e487b7100000000000000000000000000000000000000000000000000000000600052602260045260246000fd5b60006002820490506001821680620002ba57607f821691505b60208210811415620002d157620002d062000272565b5b50919050565b610a7780620002e76000396000f3fe60806040526004361061004a5760003560e01c806306fdde031461004f5780632397e4d71461007a578063a482171914610096578063f851a440146100a0578063fc0c546a146100cb575b600080fd5b34801561005b57600080fd5b506100646100f6565b604051610071919061063c565b60405180910390f35b610094600480360381019061008f9190610699565b610184565b005b61009e61039a565b005b3480156100ac57600080fd5b506100b5610559565b6040516100c29190610707565b60405180910390f35b3480156100d757600080fd5b506100e061057d565b6040516100ed9190610781565b60405180910390f35b60018054610103906107cb565b80601f016020809104026020016040519081016040528092919081815260200182805461012f906107cb565b801561017c5780601f106101515761010080835404028352916020019161017c565b820191906000526020600020905b81548152906001019060200180831161015f57829003601f168201915b505050505081565b80600260009054906101000a900473ffffffffffffffffffffffffffffffffffffffff1673ffffffffffffffffffffffffffffffffffffffff166370a08231336040518263ffffffff1660e01b81526004016101e09190610707565b602060405180830381865afa1580156101fd573d6000803e3d6000fd5b505050506040513d601f19601f820116820180604052508101906102219190610812565b101561022c57600080fd5b60006003548261023c919061089d565b90508047101561024b57600080fd5b600260009054906101000a900473ffffffffffffffffffffffffffffffffffffffff1673ffffffffffffffffffffffffffffffffffffffff166323b872dd3330856040518463ffffffff1660e01b81526004016102aa939291906108dd565b6020604051808303816000875af11580156102c9573d6000803e3d6000fd5b505050506040513d601f19601f820116820180604052508101906102ed919061094c565b503373ffffffffffffffffffffffffffffffffffffffff166108fc829081150290604051600060405180830381858888f19350505050158015610334573d6000803e3d6000fd5b507f697c42d55a5e1fed3f464ec6f38b32546a0bd368dc8068b065c67566d73f329033600260009054906101000a900473ffffffffffffffffffffffffffffffffffffffff168460035460405161038e9493929190610979565b60405180910390a15050565b6000600354346103aa91906109be565b905080600260009054906101000a900473ffffffffffffffffffffffffffffffffffffffff1673ffffffffffffffffffffffffffffffffffffffff166370a08231306040518263ffffffff1660e01b81526004016104089190610707565b602060405180830381865afa158015610425573d6000803e3d6000fd5b505050506040513d601f19601f820116820180604052508101906104499190610812565b101561045457600080fd5b600260009054906101000a900473ffffffffffffffffffffffffffffffffffffffff1673ffffffffffffffffffffffffffffffffffffffff1663a9059cbb33836040518363ffffffff1660e01b81526004016104b1929190610a18565b6020604051808303816000875af11580156104d0573d6000803e3d6000fd5b505050506040513d601f19601f820116820180604052508101906104f4919061094c565b507f6faf93231a456e552dbc9961f58d9713ee4f2e69d15f1975b050ef0911053a7b33600260009054906101000a900473ffffffffffffffffffffffffffffffffffffffff168360035460405161054e9493929190610979565b60405180910390a150565b60008054906101000a900473ffffffffffffffffffffffffffffffffffffffff1681565b600260009054906101000a900473ffffffffffffffffffffffffffffffffffffffff1681565b600081519050919050565b600082825260208201905092915050565b60005b838110156105dd5780820151818401526020810190506105c2565b838111156105ec576000848401525b50505050565b6000601f19601f8301169050919050565b600061060e826105a3565b61061881856105ae565b93506106288185602086016105bf565b610631816105f2565b840191505092915050565b600060208201905081810360008301526106568184610603565b905092915050565b600080fd5b6000819050919050565b61067681610663565b811461068157600080fd5b50565b6000813590506106938161066d565b92915050565b6000602082840312156106af576106ae61065e565b5b60006106bd84828501610684565b91505092915050565b600073ffffffffffffffffffffffffffffffffffffffff82169050919050565b60006106f1826106c6565b9050919050565b610701816106e6565b82525050565b600060208201905061071c60008301846106f8565b92915050565b6000819050919050565b600061074761074261073d846106c6565b610722565b6106c6565b9050919050565b60006107598261072c565b9050919050565b600061076b8261074e565b9050919050565b61077b81610760565b82525050565b60006020820190506107966000830184610772565b92915050565b7f4e487b7100000000000000000000000000000000000000000000000000000000600052602260045260246000fd5b600060028204905060018216806107e357607f821691505b602082108114156107f7576107f661079c565b5b50919050565b60008151905061080c8161066d565b92915050565b6000602082840312156108285761082761065e565b5b6000610836848285016107fd565b91505092915050565b7f4e487b7100000000000000000000000000000000000000000000000000000000600052601260045260246000fd5b7f4e487b7100000000000000000000000000000000000000000000000000000000600052601160045260246000fd5b60006108a882610663565b91506108b383610663565b9250826108c3576108c261083f565b5b828204905092915050565b6108d781610663565b82525050565b60006060820190506108f260008301866106f8565b6108ff60208301856106f8565b61090c60408301846108ce565b949350505050565b60008115159050919050565b61092981610914565b811461093457600080fd5b50565b60008151905061094681610920565b92915050565b6000602082840312156109625761096161065e565b5b600061097084828501610937565b91505092915050565b600060808201905061098e60008301876106f8565b61099b60208301866106f8565b6109a860408301856108ce565b6109b560608301846108ce565b95945050505050565b60006109c982610663565b91506109d483610663565b9250817fffffffffffffffffffffffffffffffffffffffffffffffffffffffffffffffff0483118215151615610a0d57610a0c61086e565b5b828202905092915050565b6000604082019050610a2d60008301856106f8565b610a3a60208301846108ce565b939250505056fea2646970667358221220224e670fa69eaa07ccfff86b8f85008b29908016698de089a27414349fa88cf264736f6c634300080a0033",
  "immutableReferences": {},
  "source": "// SPDX-License-Identifier: MIT\npragma solidity >=0.4.22 <0.9.0;\nimport './JosephToken.sol';\n\n\ncontract JosephSwap {\n    address public admin;\n    string public name = 'JosephSwap Exchange';\n    JosephToken public token;\n    uint rate = 100;\n\n    event TokensPurchased(\n    address account,\n    address token,\n    uint amount,\n    uint rate\n    );\n\n    event TokensSold(\n    address account,\n    address token,\n    uint amount,\n    uint rate\n  );\n\n    constructor(JosephToken _token){\n        admin = msg.sender;\n        token = _token;\n    }\n\n    function buyToken() public payable{\n        // Calculate the number of tokens to buy\n        uint tokenAmount = msg.value * rate;\n\n        // Require that JosephSwap contract has enough tokens\n        require(token.balanceOf(address(this)) >= tokenAmount);\n\n        // Transfer tokens to the user\n        token.transfer(msg.sender, tokenAmount);\n\n        // Emit an event\n        emit TokensPurchased(msg.sender, address(token), tokenAmount, rate);\n    }\n\n    function sellToken(uint _amount) public payable {   \n    // User can't sell more tokens than they have\n    require(token.balanceOf(msg.sender) >= _amount);\n\n    // Calculate the amount of Ether to redeem\n    uint etherAmount = _amount / rate;\n\n    // Require that JosephSwap has enough Ether\n    require(address(this).balance >= etherAmount);\n\n    // Perform sale\n    token.transferFrom(msg.sender, address(this), _amount);\n    payable(msg.sender).transfer(etherAmount);\n\n    // Emit an event\n    emit TokensSold(msg.sender, address(token), _amount, rate);\n  }\n}",
  "sourcePath": "/home/joseph/Desktop/Projects/Solidity/JosephToken/truffle/contracts/JosephSwap.sol",
  "compiler": {
    "name": "solc",
    "version": "0.8.10+commit.fc410830.Emscripten.clang"
  },
  "schemaVersion": "3.4.4",
  "updatedAt": "2022-01-04T12:54:13.050Z",
  "networkType": "ethereum",
  "devdoc": {
    "kind": "dev",
    "methods": {},
    "version": 1
  },
  "userdoc": {
    "kind": "user",
    "methods": {},
    "version": 1
  }
}