{
  "contractName": "JosephSwap",
  "abi": [
    {
      "inputs": [
        {
          "internalType": "contract JosephToken",
          "name": "_token",
          "type": "address"
        }
      ],
      "stateMutability": "nonpayable",
      "type": "constructor"
    },
    {
      "anonymous": false,
      "inputs": [
        {
          "indexed": false,
          "internalType": "address",
          "name": "account",
          "type": "address"
        },
        {
          "indexed": false,
          "internalType": "address",
          "name": "token",
          "type": "address"
        },
        {
          "indexed": false,
          "internalType": "uint256",
          "name": "amount",
          "type": "uint256"
        },
        {
          "indexed": false,
          "internalType": "uint256",
          "name": "rate",
          "type": "uint256"
        }
      ],
      "name": "TokensPurchased",
      "type": "event"
    },
    {
      "anonymous": false,
      "inputs": [
        {
          "indexed": false,
          "internalType": "address",
          "name": "account",
          "type": "address"
        },
        {
          "indexed": false,
          "internalType": "address",
          "name": "token",
          "type": "address"
        },
        {
          "indexed": false,
          "internalType": "uint256",
          "name": "amount",
          "type": "uint256"
        },
        {
          "indexed": false,
          "internalType": "uint256",
          "name": "rate",
          "type": "uint256"
        }
      ],
      "name": "TokensSold",
      "type": "event"
    },
    {
      "inputs": [],
      "name": "admin",
      "outputs": [
        {
          "internalType": "address",
          "name": "",
          "type": "address"
        }
      ],
      "stateMutability": "view",
      "type": "function",
      "constant": true
    },
    {
      "inputs": [],
      "name": "name",
      "outputs": [
        {
          "internalType": "string",
          "name": "",
          "type": "string"
        }
      ],
      "stateMutability": "view",
      "type": "function",
      "constant": true
    },
    {
      "inputs": [],
      "name": "token",
      "outputs": [
        {
          "internalType": "contract JosephToken",
          "name": "",
          "type": "address"
        }
      ],
      "stateMutability": "view",
      "type": "function",
      "constant": true
    },
    {
      "inputs": [],
      "name": "buyToken",
      "outputs": [],
      "stateMutability": "payable",
      "type": "function",
      "payable": true
    }
  ],
  "bytecode": "0x60806040526040518060400160405280601381526020017f4a6f73657068537761702045786368616e676500000000000000000000000000815250600190805190602001906200005192919062000112565b5060646003553480156200006457600080fd5b5060405162000a4838038062000a4883398181016040528101906200008a919062000240565b336000806101000a81548173ffffffffffffffffffffffffffffffffffffffff021916908373ffffffffffffffffffffffffffffffffffffffff16021790555080600260006101000a81548173ffffffffffffffffffffffffffffffffffffffff021916908373ffffffffffffffffffffffffffffffffffffffff16021790555050620002d7565b8280546200012090620002a1565b90600052602060002090601f01602090048101928262000144576000855562000190565b82601f106200015f57805160ff191683800117855562000190565b8280016001018555821562000190579182015b828111156200018f57825182559160200191906001019062000172565b5b5090506200019f9190620001a3565b5090565b5b80821115620001be576000816000905550600101620001a4565b5090565b600080fd5b600073ffffffffffffffffffffffffffffffffffffffff82169050919050565b6000620001f482620001c7565b9050919050565b60006200020882620001e7565b9050919050565b6200021a81620001fb565b81146200022657600080fd5b50565b6000815190506200023a816200020f565b92915050565b600060208284031215620002595762000258620001c2565b5b6000620002698482850162000229565b91505092915050565b7f4e487b7100000000000000000000000000000000000000000000000000000000600052602260045260246000fd5b60006002820490506001821680620002ba57607f821691505b60208210811415620002d157620002d062000272565b5b50919050565b61076180620002e76000396000f3fe60806040526004361061003f5760003560e01c806306fdde0314610044578063a48217191461006f578063f851a44014610079578063fc0c546a146100a4575b600080fd5b34801561005057600080fd5b506100596100cf565b60405161006691906103ff565b60405180910390f35b61007761015d565b005b34801561008557600080fd5b5061008e61031c565b60405161009b9190610462565b60405180910390f35b3480156100b057600080fd5b506100b9610340565b6040516100c691906104dc565b60405180910390f35b600180546100dc90610526565b80601f016020809104026020016040519081016040528092919081815260200182805461010890610526565b80156101555780601f1061012a57610100808354040283529160200191610155565b820191906000526020600020905b81548152906001019060200180831161013857829003601f168201915b505050505081565b60006003543461016d9190610591565b905080600260009054906101000a900473ffffffffffffffffffffffffffffffffffffffff1673ffffffffffffffffffffffffffffffffffffffff166370a08231306040518263ffffffff1660e01b81526004016101cb9190610462565b602060405180830381865afa1580156101e8573d6000803e3d6000fd5b505050506040513d601f19601f8201168201806040525081019061020c919061061c565b101561021757600080fd5b600260009054906101000a900473ffffffffffffffffffffffffffffffffffffffff1673ffffffffffffffffffffffffffffffffffffffff1663a9059cbb33836040518363ffffffff1660e01b8152600401610274929190610658565b6020604051808303816000875af1158015610293573d6000803e3d6000fd5b505050506040513d601f19601f820116820180604052508101906102b791906106b9565b507f6faf93231a456e552dbc9961f58d9713ee4f2e69d15f1975b050ef0911053a7b33600260009054906101000a900473ffffffffffffffffffffffffffffffffffffffff168360035460405161031194939291906106e6565b60405180910390a150565b60008054906101000a900473ffffffffffffffffffffffffffffffffffffffff1681565b600260009054906101000a900473ffffffffffffffffffffffffffffffffffffffff1681565b600081519050919050565b600082825260208201905092915050565b60005b838110156103a0578082015181840152602081019050610385565b838111156103af576000848401525b50505050565b6000601f19601f8301169050919050565b60006103d182610366565b6103db8185610371565b93506103eb818560208601610382565b6103f4816103b5565b840191505092915050565b6000602082019050818103600083015261041981846103c6565b905092915050565b600073ffffffffffffffffffffffffffffffffffffffff82169050919050565b600061044c82610421565b9050919050565b61045c81610441565b82525050565b60006020820190506104776000830184610453565b92915050565b6000819050919050565b60006104a261049d61049884610421565b61047d565b610421565b9050919050565b60006104b482610487565b9050919050565b60006104c6826104a9565b9050919050565b6104d6816104bb565b82525050565b60006020820190506104f160008301846104cd565b92915050565b7f4e487b7100000000000000000000000000000000000000000000000000000000600052602260045260246000fd5b6000600282049050600182168061053e57607f821691505b60208210811415610552576105516104f7565b5b50919050565b6000819050919050565b7f4e487b7100000000000000000000000000000000000000000000000000000000600052601160045260246000fd5b600061059c82610558565b91506105a783610558565b9250817fffffffffffffffffffffffffffffffffffffffffffffffffffffffffffffffff04831182151516156105e0576105df610562565b5b828202905092915050565b600080fd5b6105f981610558565b811461060457600080fd5b50565b600081519050610616816105f0565b92915050565b600060208284031215610632576106316105eb565b5b600061064084828501610607565b91505092915050565b61065281610558565b82525050565b600060408201905061066d6000830185610453565b61067a6020830184610649565b9392505050565b60008115159050919050565b61069681610681565b81146106a157600080fd5b50565b6000815190506106b38161068d565b92915050565b6000602082840312156106cf576106ce6105eb565b5b60006106dd848285016106a4565b91505092915050565b60006080820190506106fb6000830187610453565b6107086020830186610453565b6107156040830185610649565b6107226060830184610649565b9594505050505056fea264697066735822122062fcbdda9779a1ea5679807afaa9e8f37a58ace0a71ceff81c6dfe3de810336364736f6c634300080a0033",
  "immutableReferences": {},
  "source": "// SPDX-License-Identifier: MIT\npragma solidity >=0.4.22 <0.9.0;\nimport './JosephToken.sol';\n\n\ncontract JosephSwap {\n    address public admin;\n    string public name = 'JosephSwap Exchange';\n    JosephToken public token;\n    uint rate = 100;\n\n    event TokensPurchased(\n    address account,\n    address token,\n    uint amount,\n    uint rate\n    );\n\n    event TokensSold(\n    address account,\n    address token,\n    uint amount,\n    uint rate\n  );\n\n    constructor(JosephToken _token){\n        admin = msg.sender;\n        token = _token;\n    }\n\n    function buyToken() public payable{\n        // Calculate the number of tokens to buy\n        uint tokenAmount = msg.value * rate;\n\n        // Require that JosephSwap contract has enough tokens\n        require(token.balanceOf(address(this)) >= tokenAmount);\n\n        // Transfer tokens to the user\n        token.transfer(msg.sender, tokenAmount);\n\n        // Emit an event\n        emit TokensPurchased(msg.sender, address(token), tokenAmount, rate);\n    }\n\n    \n}",
  "sourcePath": "/home/joseph/Desktop/Projects/Solidity/JosephToken/contracts/JosephSwap.sol",
  "compiler": {
    "name": "solc",
    "version": "0.8.10+commit.fc410830.Emscripten.clang"
  },
  "schemaVersion": "3.4.4",
  "updatedAt": "2022-01-02T10:36:45.268Z",
  "networkType": "ethereum",
  "devdoc": {
    "kind": "dev",
    "methods": {},
    "version": 1
  },
  "userdoc": {
    "kind": "user",
    "methods": {},
    "version": 1
  }
}