{
  "contractName": "JosephToken",
  "abi": [
    {
      "inputs": [
        {
          "internalType": "uint256",
          "name": "_initialSupply",
          "type": "uint256"
        }
      ],
      "stateMutability": "nonpayable",
      "type": "constructor"
    },
    {
      "inputs": [],
      "name": "name",
      "outputs": [
        {
          "internalType": "string",
          "name": "",
          "type": "string"
        }
      ],
      "stateMutability": "view",
      "type": "function",
      "constant": true
    },
    {
      "inputs": [],
      "name": "symbol",
      "outputs": [
        {
          "internalType": "string",
          "name": "",
          "type": "string"
        }
      ],
      "stateMutability": "view",
      "type": "function",
      "constant": true
    },
    {
      "inputs": [],
      "name": "totalSupply",
      "outputs": [
        {
          "internalType": "uint256",
          "name": "",
          "type": "uint256"
        }
      ],
      "stateMutability": "view",
      "type": "function",
      "constant": true
    },
    {
      "inputs": [],
      "name": "getTotalSupply",
      "outputs": [
        {
          "internalType": "uint256",
          "name": "",
          "type": "uint256"
        }
      ],
      "stateMutability": "view",
      "type": "function",
      "constant": true
    },
    {
      "inputs": [
        {
          "internalType": "address",
          "name": "_account",
          "type": "address"
        }
      ],
      "name": "balanceOf",
      "outputs": [
        {
          "internalType": "uint256",
          "name": "",
          "type": "uint256"
        }
      ],
      "stateMutability": "view",
      "type": "function",
      "constant": true
    }
  ],
  "bytecode": "0x60806040526040518060400160405280600b81526020017f4a6f73657068546f6b656e0000000000000000000000000000000000000000008152506000908051906020019061004f92919061011b565b506040518060400160405280600381526020017f4a4f5400000000000000000000000000000000000000000000000000000000008152506001908051906020019061009b92919061011b565b503480156100a857600080fd5b5060405161072538038061072583398181016040528101906100ca91906101f9565b8060028190555080600360003373ffffffffffffffffffffffffffffffffffffffff1673ffffffffffffffffffffffffffffffffffffffff1681526020019081526020016000208190555050610287565b82805461012790610255565b90600052602060002090601f0160209004810192826101495760008555610190565b82601f1061016257805160ff1916838001178555610190565b82800160010185558215610190579182015b8281111561018f578251825591602001919060010190610174565b5b50905061019d91906101a1565b5090565b5b808211156101ba5760008160009055506001016101a2565b5090565b600080fd5b6000819050919050565b6101d6816101c3565b81146101e157600080fd5b50565b6000815190506101f3816101cd565b92915050565b60006020828403121561020f5761020e6101be565b5b600061021d848285016101e4565b91505092915050565b7f4e487b7100000000000000000000000000000000000000000000000000000000600052602260045260246000fd5b6000600282049050600182168061026d57607f821691505b6020821081141561028157610280610226565b5b50919050565b61048f806102966000396000f3fe608060405234801561001057600080fd5b50600436106100575760003560e01c806306fdde031461005c57806318160ddd1461007a57806370a082311461009857806395d89b41146100c8578063c4e41b22146100e6575b600080fd5b610064610104565b6040516100719190610312565b60405180910390f35b610082610192565b60405161008f919061034d565b60405180910390f35b6100b260048036038101906100ad91906103cb565b610198565b6040516100bf919061034d565b60405180910390f35b6100d06101e1565b6040516100dd9190610312565b60405180910390f35b6100ee61026f565b6040516100fb919061034d565b60405180910390f35b6000805461011190610427565b80601f016020809104026020016040519081016040528092919081815260200182805461013d90610427565b801561018a5780601f1061015f5761010080835404028352916020019161018a565b820191906000526020600020905b81548152906001019060200180831161016d57829003601f168201915b505050505081565b60025481565b6000600360008373ffffffffffffffffffffffffffffffffffffffff1673ffffffffffffffffffffffffffffffffffffffff168152602001908152602001600020549050919050565b600180546101ee90610427565b80601f016020809104026020016040519081016040528092919081815260200182805461021a90610427565b80156102675780601f1061023c57610100808354040283529160200191610267565b820191906000526020600020905b81548152906001019060200180831161024a57829003601f168201915b505050505081565b6000600254905090565b600081519050919050565b600082825260208201905092915050565b60005b838110156102b3578082015181840152602081019050610298565b838111156102c2576000848401525b50505050565b6000601f19601f8301169050919050565b60006102e482610279565b6102ee8185610284565b93506102fe818560208601610295565b610307816102c8565b840191505092915050565b6000602082019050818103600083015261032c81846102d9565b905092915050565b6000819050919050565b61034781610334565b82525050565b6000602082019050610362600083018461033e565b92915050565b600080fd5b600073ffffffffffffffffffffffffffffffffffffffff82169050919050565b60006103988261036d565b9050919050565b6103a88161038d565b81146103b357600080fd5b50565b6000813590506103c58161039f565b92915050565b6000602082840312156103e1576103e0610368565b5b60006103ef848285016103b6565b91505092915050565b7f4e487b7100000000000000000000000000000000000000000000000000000000600052602260045260246000fd5b6000600282049050600182168061043f57607f821691505b60208210811415610453576104526103f8565b5b5091905056fea26469706673582212200e0b72a807fd232006ed63e687742f69d37be05094e442b13f125a1e9510647a64736f6c634300080a0033",
  "immutableReferences": {},
  "source": "// SPDX-License-Identifier: MIT\npragma solidity >=0.4.22 <0.9.0;\n\ncontract JosephToken{\n    // Token name\n    string public name = 'JosephToken';\n    // Token Symbol\n    string public symbol = 'JOT';\n    // Token total supply\n    uint public totalSupply;\n    // Token holders address\n    mapping(address => uint256) private balances;\n\n    constructor(uint _initialSupply) {\n        totalSupply = _initialSupply;\n        balances[msg.sender] = _initialSupply;\n    }\n\n    function getTotalSupply() public view returns(uint){\n        return totalSupply;\n    }\n\n    function balanceOf(address _account) public view returns (uint256) {\n        return balances[_account];\n    }\n}",
  "sourcePath": "/home/joseph/Desktop/Projects/Solidity/JosephToken/contracts/JosephToken.sol",
  "compiler": {
    "name": "solc",
    "version": "0.8.10+commit.fc410830.Emscripten.clang"
  },
  "schemaVersion": "3.4.4",
  "updatedAt": "2021-12-30T10:32:01.082Z",
  "networkType": "ethereum",
  "devdoc": {
    "kind": "dev",
    "methods": {},
    "version": 1
  },
  "userdoc": {
    "kind": "user",
    "methods": {},
    "version": 1
  }
}