{
  "contractName": "JosephToken",
  "abi": [
    {
      "inputs": [
        {
          "internalType": "uint256",
          "name": "_initialSupply",
          "type": "uint256"
        }
      ],
      "stateMutability": "nonpayable",
      "type": "constructor"
    },
    {
      "anonymous": false,
      "inputs": [
        {
          "indexed": true,
          "internalType": "address",
          "name": "_from",
          "type": "address"
        },
        {
          "indexed": true,
          "internalType": "address",
          "name": "_to",
          "type": "address"
        },
        {
          "indexed": false,
          "internalType": "uint256",
          "name": "_value",
          "type": "uint256"
        }
      ],
      "name": "Transfer",
      "type": "event"
    },
    {
      "inputs": [],
      "name": "name",
      "outputs": [
        {
          "internalType": "string",
          "name": "",
          "type": "string"
        }
      ],
      "stateMutability": "view",
      "type": "function",
      "constant": true
    },
    {
      "inputs": [],
      "name": "symbol",
      "outputs": [
        {
          "internalType": "string",
          "name": "",
          "type": "string"
        }
      ],
      "stateMutability": "view",
      "type": "function",
      "constant": true
    },
    {
      "inputs": [],
      "name": "totalSupply",
      "outputs": [
        {
          "internalType": "uint256",
          "name": "",
          "type": "uint256"
        }
      ],
      "stateMutability": "view",
      "type": "function",
      "constant": true
    },
    {
      "inputs": [],
      "name": "getTotalSupply",
      "outputs": [
        {
          "internalType": "uint256",
          "name": "",
          "type": "uint256"
        }
      ],
      "stateMutability": "view",
      "type": "function",
      "constant": true
    },
    {
      "inputs": [
        {
          "internalType": "address",
          "name": "_account",
          "type": "address"
        }
      ],
      "name": "balanceOf",
      "outputs": [
        {
          "internalType": "uint256",
          "name": "",
          "type": "uint256"
        }
      ],
      "stateMutability": "view",
      "type": "function",
      "constant": true
    },
    {
      "inputs": [],
      "name": "decimals",
      "outputs": [
        {
          "internalType": "uint8",
          "name": "",
          "type": "uint8"
        }
      ],
      "stateMutability": "pure",
      "type": "function",
      "constant": true
    },
    {
      "inputs": [
        {
          "internalType": "address",
          "name": "_to",
          "type": "address"
        },
        {
          "internalType": "uint256",
          "name": "_value",
          "type": "uint256"
        }
      ],
      "name": "transfer",
      "outputs": [
        {
          "internalType": "bool",
          "name": "",
          "type": "bool"
        }
      ],
      "stateMutability": "nonpayable",
      "type": "function"
    }
  ],
  "bytecode": "0x60806040526040518060400160405280600b81526020017f4a6f73657068546f6b656e000000000000000000000000000000000000000000815250600090805190602001906200005192919062000125565b506040518060400160405280600381526020017f4a4f540000000000000000000000000000000000000000000000000000000000815250600190805190602001906200009f92919062000125565b50348015620000ad57600080fd5b5060405162000b4c38038062000b4c8339818101604052810190620000d3919062000215565b8060028190555080600360003373ffffffffffffffffffffffffffffffffffffffff1673ffffffffffffffffffffffffffffffffffffffff1681526020019081526020016000208190555050620002ac565b828054620001339062000276565b90600052602060002090601f016020900481019282620001575760008555620001a3565b82601f106200017257805160ff1916838001178555620001a3565b82800160010185558215620001a3579182015b82811115620001a257825182559160200191906001019062000185565b5b509050620001b29190620001b6565b5090565b5b80821115620001d1576000816000905550600101620001b7565b5090565b600080fd5b6000819050919050565b620001ef81620001da565b8114620001fb57600080fd5b50565b6000815190506200020f81620001e4565b92915050565b6000602082840312156200022e576200022d620001d5565b5b60006200023e84828501620001fe565b91505092915050565b7f4e487b7100000000000000000000000000000000000000000000000000000000600052602260045260246000fd5b600060028204905060018216806200028f57607f821691505b60208210811415620002a657620002a562000247565b5b50919050565b61089080620002bc6000396000f3fe608060405234801561001057600080fd5b506004361061007d5760003560e01c806370a082311161005b57806370a08231146100dc57806395d89b411461010c578063a9059cbb1461012a578063c4e41b221461015a5761007d565b806306fdde031461008257806318160ddd146100a0578063313ce567146100be575b600080fd5b61008a610178565b6040516100979190610523565b60405180910390f35b6100a8610206565b6040516100b5919061055e565b60405180910390f35b6100c661020c565b6040516100d39190610595565b60405180910390f35b6100f660048036038101906100f19190610613565b610215565b604051610103919061055e565b60405180910390f35b61011461025e565b6040516101219190610523565b60405180910390f35b610144600480360381019061013f919061066c565b6102ec565b60405161015191906106c7565b60405180910390f35b610162610480565b60405161016f919061055e565b60405180910390f35b6000805461018590610711565b80601f01602080910402602001604051908101604052809291908181526020018280546101b190610711565b80156101fe5780601f106101d3576101008083540402835291602001916101fe565b820191906000526020600020905b8154815290600101906020018083116101e157829003601f168201915b505050505081565b60025481565b60006012905090565b6000600360008373ffffffffffffffffffffffffffffffffffffffff1673ffffffffffffffffffffffffffffffffffffffff168152602001908152602001600020549050919050565b6001805461026b90610711565b80601f016020809104026020016040519081016040528092919081815260200182805461029790610711565b80156102e45780601f106102b9576101008083540402835291602001916102e4565b820191906000526020600020905b8154815290600101906020018083116102c757829003601f168201915b505050505081565b600080600360003373ffffffffffffffffffffffffffffffffffffffff1673ffffffffffffffffffffffffffffffffffffffff16815260200190815260200160002054905082811015610374576040517f08c379a000000000000000000000000000000000000000000000000000000000815260040161036b906107b5565b60405180910390fd5b828103600360003373ffffffffffffffffffffffffffffffffffffffff1673ffffffffffffffffffffffffffffffffffffffff1681526020019081526020016000208190555082600360008673ffffffffffffffffffffffffffffffffffffffff1673ffffffffffffffffffffffffffffffffffffffff16815260200190815260200160002060008282546104099190610804565b925050819055508373ffffffffffffffffffffffffffffffffffffffff163373ffffffffffffffffffffffffffffffffffffffff167fddf252ad1be2c89b69c2b068fc378daa952ba7f163c4a11628f55a4df523b3ef8560405161046d919061055e565b60405180910390a3600191505092915050565b6000600254905090565b600081519050919050565b600082825260208201905092915050565b60005b838110156104c45780820151818401526020810190506104a9565b838111156104d3576000848401525b50505050565b6000601f19601f8301169050919050565b60006104f58261048a565b6104ff8185610495565b935061050f8185602086016104a6565b610518816104d9565b840191505092915050565b6000602082019050818103600083015261053d81846104ea565b905092915050565b6000819050919050565b61055881610545565b82525050565b6000602082019050610573600083018461054f565b92915050565b600060ff82169050919050565b61058f81610579565b82525050565b60006020820190506105aa6000830184610586565b92915050565b600080fd5b600073ffffffffffffffffffffffffffffffffffffffff82169050919050565b60006105e0826105b5565b9050919050565b6105f0816105d5565b81146105fb57600080fd5b50565b60008135905061060d816105e7565b92915050565b600060208284031215610629576106286105b0565b5b6000610637848285016105fe565b91505092915050565b61064981610545565b811461065457600080fd5b50565b60008135905061066681610640565b92915050565b60008060408385031215610683576106826105b0565b5b6000610691858286016105fe565b92505060206106a285828601610657565b9150509250929050565b60008115159050919050565b6106c1816106ac565b82525050565b60006020820190506106dc60008301846106b8565b92915050565b7f4e487b7100000000000000000000000000000000000000000000000000000000600052602260045260246000fd5b6000600282049050600182168061072957607f821691505b6020821081141561073d5761073c6106e2565b5b50919050565b7f45524332303a207472616e7366657220616d6f756e742065786365656473206260008201527f616c616e63650000000000000000000000000000000000000000000000000000602082015250565b600061079f602683610495565b91506107aa82610743565b604082019050919050565b600060208201905081810360008301526107ce81610792565b9050919050565b7f4e487b7100000000000000000000000000000000000000000000000000000000600052601160045260246000fd5b600061080f82610545565b915061081a83610545565b9250827fffffffffffffffffffffffffffffffffffffffffffffffffffffffffffffffff0382111561084f5761084e6107d5565b5b82820190509291505056fea2646970667358221220ea4ea8fd0c9b7fa03df1ce8fd5bafd8770e62bc938b0ed34f505af49a9b7368e64736f6c634300080a0033",
  "immutableReferences": {},
  "source": "// SPDX-License-Identifier: MIT\npragma solidity >=0.4.22 <0.9.0;\n\ncontract JosephToken{\n    // Token name\n    string public name = 'JosephToken';\n    // Token Symbol\n    string public symbol = 'JOT';\n    // Token total supply\n    uint256 public totalSupply;\n    // Token holders address\n    mapping(address => uint256) private balances;\n\n    event Transfer(address indexed _from, address indexed _to, uint256 _value);\n\n    constructor(uint256 _initialSupply) {\n        totalSupply = _initialSupply;\n        balances[msg.sender] = _initialSupply;\n    }\n\n    function getTotalSupply() public view returns(uint256){\n        return totalSupply;\n    }\n\n    function balanceOf(address _account) public view returns (uint256) {\n        return balances[_account];\n    }\n\n    function decimals() public pure returns (uint8) {\n        return 18;\n    }\n\n    function transfer(address _to, uint256 _value) public returns (bool){\n        uint256 senderBalance = balances[msg.sender];\n        require(senderBalance >= _value,\"ERC20: transfer amount exceeds balance\");\n\n        unchecked {\n            balances[msg.sender] = senderBalance - _value;\n        }\n        balances[_to] += _value;\n\n        emit Transfer(msg.sender,_to,_value);\n\n        return true;\n    }\n}",
  "sourcePath": "/home/joseph/Desktop/Projects/Solidity/JosephToken/contracts/JosephToken.sol",
  "compiler": {
    "name": "solc",
    "version": "0.8.10+commit.fc410830.Emscripten.clang"
  },
  "schemaVersion": "3.4.4",
  "updatedAt": "2021-12-30T11:43:46.533Z",
  "networkType": "ethereum",
  "devdoc": {
    "kind": "dev",
    "methods": {},
    "version": 1
  },
  "userdoc": {
    "kind": "user",
    "methods": {},
    "version": 1
  }
}